{
    "_format": "hh-sol-artifact-1",
    "contractName": "BatchTransfer1155",
    "sourceName": "contracts/BatchTransfer1155.sol",
    "abi": [
        {
            "inputs": [
                {
                    "internalType": "address",
                    "name": "_fromAddress",
                    "type": "address"
                }
            ],
            "stateMutability": "nonpayable",
            "type": "constructor"
        },
        {
            "inputs": [],
            "name": "admin",
            "outputs": [
                {
                    "internalType": "address",
                    "name": "",
                    "type": "address"
                }
            ],
            "stateMutability": "view",
            "type": "function"
        },
        {
            "inputs": [
                {
                    "internalType": "contract IERC1155",
                    "name": "tokenContract",
                    "type": "address"
                },
                {
                    "internalType": "address[]",
                    "name": "_to",
                    "type": "address[]"
                },
                {
                    "internalType": "uint256",
                    "name": "tokenId",
                    "type": "uint256"
                }
            ],
            "name": "batchTransfer",
            "outputs": [],
            "stateMutability": "nonpayable",
            "type": "function"
        },
        {
            "inputs": [],
            "name": "fromAddress",
            "outputs": [
                {
                    "internalType": "address",
                    "name": "",
                    "type": "address"
                }
            ],
            "stateMutability": "view",
            "type": "function"
        }
    ],
    "bytecode": "0x608060405234801561001057600080fd5b506040516108e73803806108e78339818101604052810190610032919061018c565b600073ffffffffffffffffffffffffffffffffffffffff168173ffffffffffffffffffffffffffffffffffffffff1614156100a2576040517f08c379a000000000000000000000000000000000000000000000000000000000815260040161009990610216565b60405180910390fd5b806000806101000a81548173ffffffffffffffffffffffffffffffffffffffff021916908373ffffffffffffffffffffffffffffffffffffffff16021790555033600160006101000a81548173ffffffffffffffffffffffffffffffffffffffff021916908373ffffffffffffffffffffffffffffffffffffffff16021790555050610236565b600080fd5b600073ffffffffffffffffffffffffffffffffffffffff82169050919050565b60006101598261012e565b9050919050565b6101698161014e565b811461017457600080fd5b50565b60008151905061018681610160565b92915050565b6000602082840312156101a2576101a1610129565b5b60006101b084828501610177565b91505092915050565b600082825260208201905092915050565b7f7a65726f20616464726573730000000000000000000000000000000000000000600082015250565b6000610200600c836101b9565b915061020b826101ca565b602082019050919050565b6000602082019050818103600083015261022f816101f3565b9050919050565b6106a2806102456000396000f3fe608060405234801561001057600080fd5b50600436106100415760003560e01c80635215ad0b1461004657806363d1302c14610062578063f851a44014610080575b600080fd5b610060600480360381019061005b919061036e565b61009e565b005b61006a61020f565b60405161007791906103f1565b60405180910390f35b610088610233565b60405161009591906103f1565b60405180910390f35b600160009054906101000a900473ffffffffffffffffffffffffffffffffffffffff1673ffffffffffffffffffffffffffffffffffffffff163373ffffffffffffffffffffffffffffffffffffffff161461012e576040517f08c379a000000000000000000000000000000000000000000000000000000000815260040161012590610469565b60405180910390fd5b60005b83839050811015610208578473ffffffffffffffffffffffffffffffffffffffff1663f242432a60008054906101000a900473ffffffffffffffffffffffffffffffffffffffff1686868581811061018c5761018b610489565b5b90506020020160208101906101a191906104e4565b8560016040518563ffffffff1660e01b81526004016101c3949392919061059c565b600060405180830381600087803b1580156101dd57600080fd5b505af11580156101f1573d6000803e3d6000fd5b50505050808061020090610623565b915050610131565b5050505050565b60008054906101000a900473ffffffffffffffffffffffffffffffffffffffff1681565b600160009054906101000a900473ffffffffffffffffffffffffffffffffffffffff1681565b600080fd5b600080fd5b600073ffffffffffffffffffffffffffffffffffffffff82169050919050565b600061028e82610263565b9050919050565b60006102a082610283565b9050919050565b6102b081610295565b81146102bb57600080fd5b50565b6000813590506102cd816102a7565b92915050565b600080fd5b600080fd5b600080fd5b60008083601f8401126102f8576102f76102d3565b5b8235905067ffffffffffffffff811115610315576103146102d8565b5b602083019150836020820283011115610331576103306102dd565b5b9250929050565b6000819050919050565b61034b81610338565b811461035657600080fd5b50565b60008135905061036881610342565b92915050565b6000806000806060858703121561038857610387610259565b5b6000610396878288016102be565b945050602085013567ffffffffffffffff8111156103b7576103b661025e565b5b6103c3878288016102e2565b935093505060406103d687828801610359565b91505092959194509250565b6103eb81610283565b82525050565b600060208201905061040660008301846103e2565b92915050565b600082825260208201905092915050565b7f6e6f742061646d696e0000000000000000000000000000000000000000000000600082015250565b600061045360098361040c565b915061045e8261041d565b602082019050919050565b6000602082019050818103600083015261048281610446565b9050919050565b7f4e487b7100000000000000000000000000000000000000000000000000000000600052603260045260246000fd5b6104c181610283565b81146104cc57600080fd5b50565b6000813590506104de816104b8565b92915050565b6000602082840312156104fa576104f9610259565b5b6000610508848285016104cf565b91505092915050565b61051a81610338565b82525050565b6000819050919050565b6000819050919050565b600061054f61054a61054584610520565b61052a565b610338565b9050919050565b61055f81610534565b82525050565b600082825260208201905092915050565b50565b6000610586600083610565565b915061059182610576565b600082019050919050565b600060a0820190506105b160008301876103e2565b6105be60208301866103e2565b6105cb6040830185610511565b6105d86060830184610556565b81810360808301526105e981610579565b905095945050505050565b7f4e487b7100000000000000000000000000000000000000000000000000000000600052601160045260246000fd5b600061062e82610338565b91507fffffffffffffffffffffffffffffffffffffffffffffffffffffffffffffffff821415610661576106606105f4565b5b60018201905091905056fea2646970667358221220bddcc68de440059720e23c8d6925d916c85269893dd5843c3892f877f56b5a1064736f6c63430008090033",
    "linkReferences": {},
    "deployedLinkReferences": {}
}